{
  "_format": "hh-sol-artifact-1",
  "contractName": "IPFSUpload",
  "sourceName": "contracts/IPFSUpload.sol",
  "abi": [
    {
      "inputs": [
        {
          "internalType": "address",
          "name": "",
          "type": "address"
        },
        {
          "internalType": "uint256",
          "name": "",
          "type": "uint256"
        }
      ],
      "name": "accessList",
      "outputs": [
        {
          "internalType": "address",
          "name": "user",
          "type": "address"
        },
        {
          "internalType": "bool",
          "name": "hasAccess",
          "type": "bool"
        }
      ],
      "stateMutability": "view",
      "type": "function"
    },
    {
      "inputs": [
        {
          "internalType": "address",
          "name": "_user",
          "type": "address"
        },
        {
          "internalType": "string",
          "name": "_url",
          "type": "string"
        },
        {
          "internalType": "string",
          "name": "_name",
          "type": "string"
        },
        {
          "internalType": "uint256",
          "name": "_date",
          "type": "uint256"
        }
      ],
      "name": "add",
      "outputs": [],
      "stateMutability": "nonpayable",
      "type": "function"
    },
    {
      "inputs": [
        {
          "internalType": "address",
          "name": "_user",
          "type": "address"
        }
      ],
      "name": "allow",
      "outputs": [],
      "stateMutability": "nonpayable",
      "type": "function"
    },
    {
      "inputs": [
        {
          "internalType": "address",
          "name": "_user",
          "type": "address"
        }
      ],
      "name": "disallow",
      "outputs": [],
      "stateMutability": "nonpayable",
      "type": "function"
    },
    {
      "inputs": [
        {
          "internalType": "address",
          "name": "_user",
          "type": "address"
        }
      ],
      "name": "display",
      "outputs": [
        {
          "components": [
            {
              "internalType": "string",
              "name": "reportUrl",
              "type": "string"
            },
            {
              "internalType": "string",
              "name": "name",
              "type": "string"
            },
            {
              "internalType": "uint256",
              "name": "date",
              "type": "uint256"
            },
            {
              "internalType": "string",
              "name": "feedback",
              "type": "string"
            }
          ],
          "internalType": "struct IPFSUpload.Report[]",
          "name": "",
          "type": "tuple[]"
        }
      ],
      "stateMutability": "view",
      "type": "function"
    },
    {
      "inputs": [
        {
          "internalType": "address",
          "name": "",
          "type": "address"
        },
        {
          "internalType": "address",
          "name": "",
          "type": "address"
        }
      ],
      "name": "ownership",
      "outputs": [
        {
          "internalType": "bool",
          "name": "",
          "type": "bool"
        }
      ],
      "stateMutability": "view",
      "type": "function"
    },
    {
      "inputs": [
        {
          "internalType": "address",
          "name": "",
          "type": "address"
        },
        {
          "internalType": "address",
          "name": "",
          "type": "address"
        }
      ],
      "name": "previousAccess",
      "outputs": [
        {
          "internalType": "bool",
          "name": "",
          "type": "bool"
        }
      ],
      "stateMutability": "view",
      "type": "function"
    },
    {
      "inputs": [
        {
          "internalType": "address",
          "name": "",
          "type": "address"
        },
        {
          "internalType": "uint256",
          "name": "",
          "type": "uint256"
        }
      ],
      "name": "reports",
      "outputs": [
        {
          "internalType": "string",
          "name": "reportUrl",
          "type": "string"
        },
        {
          "internalType": "string",
          "name": "name",
          "type": "string"
        },
        {
          "internalType": "uint256",
          "name": "date",
          "type": "uint256"
        },
        {
          "internalType": "string",
          "name": "feedback",
          "type": "string"
        }
      ],
      "stateMutability": "view",
      "type": "function"
    },
    {
      "inputs": [],
      "name": "shareAcess",
      "outputs": [
        {
          "components": [
            {
              "internalType": "address",
              "name": "user",
              "type": "address"
            },
            {
              "internalType": "bool",
              "name": "hasAccess",
              "type": "bool"
            }
          ],
          "internalType": "struct IPFSUpload.Access[]",
          "name": "",
          "type": "tuple[]"
        }
      ],
      "stateMutability": "view",
      "type": "function"
    },
    {
      "inputs": [
        {
          "internalType": "address",
          "name": "_user",
          "type": "address"
        },
        {
          "internalType": "uint256",
          "name": "_reportIndex",
          "type": "uint256"
        },
        {
          "internalType": "string",
          "name": "_feedback",
          "type": "string"
        }
      ],
      "name": "updateFeedback",
      "outputs": [],
      "stateMutability": "nonpayable",
      "type": "function"
    }
  ],
  "bytecode": "0x608060405234801561001057600080fd5b50611ff1806100206000396000f3fe608060405234801561001057600080fd5b506004361061009e5760003560e01c8063bad02c7e11610066578063bad02c7e1461016e578063d377b1e7146101a1578063e08160f4146101bd578063eb39113f146101d9578063ff9913e8146102095761009e565b806349f12d0a146100a357806370c2b419146100d3578063974fe59114610104578063a996450614610134578063a9ed9cb814610152575b600080fd5b6100bd60048036038101906100b891906113a4565b610225565b6040516100ca91906113ff565b60405180910390f35b6100ed60048036038101906100e89190611450565b610254565b6040516100fb92919061149f565b60405180910390f35b61011e600480360381019061011991906113a4565b6102be565b60405161012b91906113ff565b60405180910390f35b61013c6102ed565b60405161014991906115c4565b60405180910390f35b61016c600480360381019061016791906115e6565b6103f5565b005b61018860048036038101906101839190611450565b61060e565b60405161019894939291906116b2565b60405180910390f35b6101bb60048036038101906101b69190611771565b6107f3565b005b6101d760048036038101906101d291906117e5565b610a26565b005b6101f360048036038101906101ee91906115e6565b610b9c565b6040516102009190611a18565b60405180910390f35b610223600480360381019061021e91906115e6565b610ef9565b005b60036020528160005260406000206020528060005260406000206000915091509054906101000a900460ff1681565b6000602052816000526040600020818154811061027057600080fd5b90600052602060002001600091509150508060000160009054906101000a900473ffffffffffffffffffffffffffffffffffffffff16908060000160149054906101000a900460ff16905082565b60026020528160005260406000206020528060005260406000206000915091509054906101000a900460ff1681565b60606000803373ffffffffffffffffffffffffffffffffffffffff1673ffffffffffffffffffffffffffffffffffffffff168152602001908152602001600020805480602002602001604051908101604052809291908181526020016000905b828210156103ec578382906000526020600020016040518060400160405290816000820160009054906101000a900473ffffffffffffffffffffffffffffffffffffffff1673ffffffffffffffffffffffffffffffffffffffff1673ffffffffffffffffffffffffffffffffffffffff1681526020016000820160149054906101000a900460ff1615151515815250508152602001906001019061034d565b50505050905090565b6000600260003373ffffffffffffffffffffffffffffffffffffffff1673ffffffffffffffffffffffffffffffffffffffff16815260200190815260200160002060008373ffffffffffffffffffffffffffffffffffffffff1673ffffffffffffffffffffffffffffffffffffffff16815260200190815260200160002060006101000a81548160ff02191690831515021790555060005b6000803373ffffffffffffffffffffffffffffffffffffffff1673ffffffffffffffffffffffffffffffffffffffff1681526020019081526020016000208054905081101561060a578173ffffffffffffffffffffffffffffffffffffffff166000803373ffffffffffffffffffffffffffffffffffffffff1673ffffffffffffffffffffffffffffffffffffffff168152602001908152602001600020828154811061053d5761053c611a3a565b5b9060005260206000200160000160009054906101000a900473ffffffffffffffffffffffffffffffffffffffff1673ffffffffffffffffffffffffffffffffffffffff16036105fd5760008060003373ffffffffffffffffffffffffffffffffffffffff1673ffffffffffffffffffffffffffffffffffffffff16815260200190815260200160002082815481106105d8576105d7611a3a565b5b9060005260206000200160000160146101000a81548160ff0219169083151502179055505b808060010191505061048d565b5050565b6001602052816000526040600020818154811061062a57600080fd5b90600052602060002090600402016000915091505080600001805461064e90611a98565b80601f016020809104026020016040519081016040528092919081815260200182805461067a90611a98565b80156106c75780601f1061069c576101008083540402835291602001916106c7565b820191906000526020600020905b8154815290600101906020018083116106aa57829003601f168201915b5050505050908060010180546106dc90611a98565b80601f016020809104026020016040519081016040528092919081815260200182805461070890611a98565b80156107555780601f1061072a57610100808354040283529160200191610755565b820191906000526020600020905b81548152906001019060200180831161073857829003601f168201915b50505050509080600201549080600301805461077090611a98565b80601f016020809104026020016040519081016040528092919081815260200182805461079c90611a98565b80156107e95780601f106107be576101008083540402835291602001916107e9565b820191906000526020600020905b8154815290600101906020018083116107cc57829003601f168201915b5050505050905084565b8373ffffffffffffffffffffffffffffffffffffffff163373ffffffffffffffffffffffffffffffffffffffff1603610861576040517f08c379a000000000000000000000000000000000000000000000000000000000815260040161085890611b3b565b60405180910390fd5b600260008573ffffffffffffffffffffffffffffffffffffffff1673ffffffffffffffffffffffffffffffffffffffff16815260200190815260200160002060003373ffffffffffffffffffffffffffffffffffffffff1673ffffffffffffffffffffffffffffffffffffffff16815260200190815260200160002060009054906101000a900460ff1661092a576040517f08c379a000000000000000000000000000000000000000000000000000000000815260040161092190611ba7565b60405180910390fd5b600160008573ffffffffffffffffffffffffffffffffffffffff1673ffffffffffffffffffffffffffffffffffffffff1681526020019081526020016000208054905083106109ae576040517f08c379a00000000000000000000000000000000000000000000000000000000081526004016109a590611c13565b60405180910390fd5b8181600160008773ffffffffffffffffffffffffffffffffffffffff1673ffffffffffffffffffffffffffffffffffffffff1681526020019081526020016000208581548110610a0157610a00611a3a565b5b90600052602060002090600402016003019182610a1f929190611e19565b5050505050565b600160008773ffffffffffffffffffffffffffffffffffffffff1673ffffffffffffffffffffffffffffffffffffffff168152602001908152602001600020604051806080016040528087878080601f016020809104026020016040519081016040528093929190818152602001838380828437600081840152601f19601f82011690508083019250505050505050815260200185858080601f016020809104026020016040519081016040528093929190818152602001838380828437600081840152601f19601f8201169050808301925050505050505081526020018381526020016040518060200160405280600081525081525090806001815401808255809150506001900390600052602060002090600402016000909190919091506000820151816000019081610b5b9190611ee9565b506020820151816001019081610b719190611ee9565b50604082015181600201556060820151816003019081610b919190611ee9565b505050505050505050565b60608173ffffffffffffffffffffffffffffffffffffffff163373ffffffffffffffffffffffffffffffffffffffff161480610c5e5750600260008373ffffffffffffffffffffffffffffffffffffffff1673ffffffffffffffffffffffffffffffffffffffff16815260200190815260200160002060003373ffffffffffffffffffffffffffffffffffffffff1673ffffffffffffffffffffffffffffffffffffffff16815260200190815260200160002060009054906101000a900460ff165b610c9d576040517f08c379a0000000000000000000000000000000000000000000000000000000008152600401610c9490611ba7565b60405180910390fd5b600160008373ffffffffffffffffffffffffffffffffffffffff1673ffffffffffffffffffffffffffffffffffffffff168152602001908152602001600020805480602002602001604051908101604052809291908181526020016000905b82821015610eee5783829060005260206000209060040201604051806080016040529081600082018054610d2f90611a98565b80601f0160208091040260200160405190810160405280929190818152602001828054610d5b90611a98565b8015610da85780601f10610d7d57610100808354040283529160200191610da8565b820191906000526020600020905b815481529060010190602001808311610d8b57829003601f168201915b50505050508152602001600182018054610dc190611a98565b80601f0160208091040260200160405190810160405280929190818152602001828054610ded90611a98565b8015610e3a5780601f10610e0f57610100808354040283529160200191610e3a565b820191906000526020600020905b815481529060010190602001808311610e1d57829003601f168201915b5050505050815260200160028201548152602001600382018054610e5d90611a98565b80601f0160208091040260200160405190810160405280929190818152602001828054610e8990611a98565b8015610ed65780601f10610eab57610100808354040283529160200191610ed6565b820191906000526020600020905b815481529060010190602001808311610eb957829003601f168201915b50505050508152505081526020019060010190610cfc565b505050509050919050565b6001600260003373ffffffffffffffffffffffffffffffffffffffff1673ffffffffffffffffffffffffffffffffffffffff16815260200190815260200160002060008373ffffffffffffffffffffffffffffffffffffffff1673ffffffffffffffffffffffffffffffffffffffff16815260200190815260200160002060006101000a81548160ff02191690831515021790555060011515600360003373ffffffffffffffffffffffffffffffffffffffff1673ffffffffffffffffffffffffffffffffffffffff16815260200190815260200160002060008373ffffffffffffffffffffffffffffffffffffffff1673ffffffffffffffffffffffffffffffffffffffff16815260200190815260200160002060009054906101000a900460ff161515036111a95760005b6000803373ffffffffffffffffffffffffffffffffffffffff1673ffffffffffffffffffffffffffffffffffffffff168152602001908152602001600020805490508110156111a3578173ffffffffffffffffffffffffffffffffffffffff166000803373ffffffffffffffffffffffffffffffffffffffff1673ffffffffffffffffffffffffffffffffffffffff16815260200190815260200160002082815481106110d6576110d5611a3a565b5b9060005260206000200160000160009054906101000a900473ffffffffffffffffffffffffffffffffffffffff1673ffffffffffffffffffffffffffffffffffffffff16036111965760016000803373ffffffffffffffffffffffffffffffffffffffff1673ffffffffffffffffffffffffffffffffffffffff168152602001908152602001600020828154811061117157611170611a3a565b5b9060005260206000200160000160146101000a81548160ff0219169083151502179055505b8080600101915050611026565b50611339565b6000803373ffffffffffffffffffffffffffffffffffffffff1673ffffffffffffffffffffffffffffffffffffffff16815260200190815260200160002060405180604001604052808373ffffffffffffffffffffffffffffffffffffffff168152602001600115158152509080600181540180825580915050600190039060005260206000200160009091909190915060008201518160000160006101000a81548173ffffffffffffffffffffffffffffffffffffffff021916908373ffffffffffffffffffffffffffffffffffffffff16021790555060208201518160000160146101000a81548160ff02191690831515021790555050506001600360003373ffffffffffffffffffffffffffffffffffffffff1673ffffffffffffffffffffffffffffffffffffffff16815260200190815260200160002060008373ffffffffffffffffffffffffffffffffffffffff1673ffffffffffffffffffffffffffffffffffffffff16815260200190815260200160002060006101000a81548160ff0219169083151502179055505b50565b600080fd5b600080fd5b600073ffffffffffffffffffffffffffffffffffffffff82169050919050565b600061137182611346565b9050919050565b61138181611366565b811461138c57600080fd5b50565b60008135905061139e81611378565b92915050565b600080604083850312156113bb576113ba61133c565b5b60006113c98582860161138f565b92505060206113da8582860161138f565b9150509250929050565b60008115159050919050565b6113f9816113e4565b82525050565b600060208201905061141460008301846113f0565b92915050565b6000819050919050565b61142d8161141a565b811461143857600080fd5b50565b60008135905061144a81611424565b92915050565b600080604083850312156114675761146661133c565b5b60006114758582860161138f565b92505060206114868582860161143b565b9150509250929050565b61149981611366565b82525050565b60006040820190506114b46000830185611490565b6114c160208301846113f0565b9392505050565b600081519050919050565b600082825260208201905092915050565b6000819050602082019050919050565b6114fd81611366565b82525050565b61150c816113e4565b82525050565b60408201600082015161152860008501826114f4565b50602082015161153b6020850182611503565b50505050565b600061154d8383611512565b60408301905092915050565b6000602082019050919050565b6000611571826114c8565b61157b81856114d3565b9350611586836114e4565b8060005b838110156115b757815161159e8882611541565b97506115a983611559565b92505060018101905061158a565b5085935050505092915050565b600060208201905081810360008301526115de8184611566565b905092915050565b6000602082840312156115fc576115fb61133c565b5b600061160a8482850161138f565b91505092915050565b600081519050919050565b600082825260208201905092915050565b60005b8381101561164d578082015181840152602081019050611632565b60008484015250505050565b6000601f19601f8301169050919050565b600061167582611613565b61167f818561161e565b935061168f81856020860161162f565b61169881611659565b840191505092915050565b6116ac8161141a565b82525050565b600060808201905081810360008301526116cc818761166a565b905081810360208301526116e0818661166a565b90506116ef60408301856116a3565b8181036060830152611701818461166a565b905095945050505050565b600080fd5b600080fd5b600080fd5b60008083601f8401126117315761173061170c565b5b8235905067ffffffffffffffff81111561174e5761174d611711565b5b60208301915083600182028301111561176a57611769611716565b5b9250929050565b6000806000806060858703121561178b5761178a61133c565b5b60006117998782880161138f565b94505060206117aa8782880161143b565b935050604085013567ffffffffffffffff8111156117cb576117ca611341565b5b6117d78782880161171b565b925092505092959194509250565b600080600080600080608087890312156118025761180161133c565b5b600061181089828a0161138f565b965050602087013567ffffffffffffffff81111561183157611830611341565b5b61183d89828a0161171b565b9550955050604087013567ffffffffffffffff8111156118605761185f611341565b5b61186c89828a0161171b565b9350935050606061187f89828a0161143b565b9150509295509295509295565b600081519050919050565b600082825260208201905092915050565b6000819050602082019050919050565b600082825260208201905092915050565b60006118d482611613565b6118de81856118b8565b93506118ee81856020860161162f565b6118f781611659565b840191505092915050565b61190b8161141a565b82525050565b6000608083016000830151848203600086015261192e82826118c9565b9150506020830151848203602086015261194882826118c9565b915050604083015161195d6040860182611902565b506060830151848203606086015261197582826118c9565b9150508091505092915050565b600061198e8383611911565b905092915050565b6000602082019050919050565b60006119ae8261188c565b6119b88185611897565b9350836020820285016119ca856118a8565b8060005b85811015611a0657848403895281516119e78582611982565b94506119f283611996565b925060208a019950506001810190506119ce565b50829750879550505050505092915050565b60006020820190508181036000830152611a3281846119a3565b905092915050565b7f4e487b7100000000000000000000000000000000000000000000000000000000600052603260045260246000fd5b7f4e487b7100000000000000000000000000000000000000000000000000000000600052602260045260246000fd5b60006002820490506001821680611ab057607f821691505b602082108103611ac357611ac2611a69565b5b50919050565b7f4f776e6572206f6620746865207265706f72742063616e6e6f74206c6561766560008201527f20666565646261636b2e00000000000000000000000000000000000000000000602082015250565b6000611b25602a8361161e565b9150611b3082611ac9565b604082019050919050565b60006020820190508181036000830152611b5481611b18565b9050919050565b7f5065726d697373696f6e2064656e6965642e0000000000000000000000000000600082015250565b6000611b9160128361161e565b9150611b9c82611b5b565b602082019050919050565b60006020820190508181036000830152611bc081611b84565b9050919050565b7f5265706f727420696e646578206f7574206f6620626f756e64732e0000000000600082015250565b6000611bfd601b8361161e565b9150611c0882611bc7565b602082019050919050565b60006020820190508181036000830152611c2c81611bf0565b9050919050565b600082905092915050565b7f4e487b7100000000000000000000000000000000000000000000000000000000600052604160045260246000fd5b60008190508160005260206000209050919050565b60006020601f8301049050919050565b600082821b905092915050565b600060088302611ccf7fffffffffffffffffffffffffffffffffffffffffffffffffffffffffffffffff82611c92565b611cd98683611c92565b95508019841693508086168417925050509392505050565b6000819050919050565b6000611d16611d11611d0c8461141a565b611cf1565b61141a565b9050919050565b6000819050919050565b611d3083611cfb565b611d44611d3c82611d1d565b848454611c9f565b825550505050565b600090565b611d59611d4c565b611d64818484611d27565b505050565b5b81811015611d8857611d7d600082611d51565b600181019050611d6a565b5050565b601f821115611dcd57611d9e81611c6d565b611da784611c82565b81016020851015611db6578190505b611dca611dc285611c82565b830182611d69565b50505b505050565b600082821c905092915050565b6000611df060001984600802611dd2565b1980831691505092915050565b6000611e098383611ddf565b9150826002028217905092915050565b611e238383611c33565b67ffffffffffffffff811115611e3c57611e3b611c3e565b5b611e468254611a98565b611e51828285611d8c565b6000601f831160018114611e805760008415611e6e578287013590505b611e788582611dfd565b865550611ee0565b601f198416611e8e86611c6d565b60005b82811015611eb657848901358255600182019150602085019450602081019050611e91565b86831015611ed35784890135611ecf601f891682611ddf565b8355505b6001600288020188555050505b50505050505050565b611ef282611613565b67ffffffffffffffff811115611f0b57611f0a611c3e565b5b611f158254611a98565b611f20828285611d8c565b600060209050601f831160018114611f535760008415611f41578287015190505b611f4b8582611dfd565b865550611fb3565b601f198416611f6186611c6d565b60005b82811015611f8957848901518255600182019150602085019450602081019050611f64565b86831015611fa65784890151611fa2601f891682611ddf565b8355505b6001600288020188555050505b50505050505056fea26469706673582212202acc864ce35aa4560351c59d186ff9c81bd19f2e4180b954ca22c836ffba227864736f6c63430008180033",
  "linkReferences": {},
  "deployedLinkReferences": {}
}